:0400000080313028F3
:10000800803120007F08F400911E2D282300190854
:10001800F3007308F70077080A3A031924280C300C
:100028007602031824287708F3007608203E860015
:100038008701730881000130F3007308F6072B2845
:10004800F6012030F1000030F20080315B20200002
:1000580091127408FF00090080313228F601F70177
:10006800A001A101A201A301A401A501A601A70164
:10007800A801A901AA01AB01200080317228200043
:100088002C0884002D088500000800380319080092
:1000980020002C0884002D08850000088031A62047
:1000A800803101302000AC070030AD3D4328710895
:1000B8008400720885000008003803197028710848
:1000C80084007208850000088031AD20803101303D
:1000D800F1070030F23D5B282000080021001908D4
:1000E8008739683899008031962080318630200021
:1000F800AC008030AD008031432080310B178B1766
:100108008428003449346E346934743420346334B8
:100118006F346D3470346C34653474346534213420
:100128000A34003423009E161E151D168D12210058
:100138008D168D17193023009B002100911623007E
:100148009D170800F50023009E1CA72875089A0033
:100158000800F00023009E1CAE2870089A000800D2
:020000040001F9
:04000E00E4FFFFFF0D
:00000001FF
